:020000020000FC
:1000000000C00F930FE00EBF0FEF0DBF00E00BBF5E
:100010000FEF07BB0FEF08BB00E001BB0FEF02BB08
:100020000FE911E04ED00AEAA0E0B3E00C935527A7
:1000300014C050726976617465206B657920656EB5
:100040006372797074696F6E20776F726B73212D94
:100050004461766964204D6F6E6B0AD06CD06BD0B2
:1000600010B31F3F21F019D010B31F3FE9F7F5CFB0
:100070001F930F9318E2A0E0B3E00C91C0E0D1E031
:10008000F0E0E2E3059041D0002609921A95D1F7FD
:1000900014E018830F911F9108953F930F9302E08E
:1000A00018D038E2D1E0C0E0002709914AD011D041
:1000B0003A9509F0FACF3FD004E00BD00F913F9171
:1000C0000895109398000093990008E100939A0016
:1000D00008952F933F9320919B0025FFFACF009323
:1000E0009C00302F309538BB3F912F9108952F936E
:1000F0003F9320919B0027FFFACF00919C00302F67
:10010000309538BB3F912F9108953F93202E31E0D9
:10011000432E302E3694532C3694232436942324A5
:1001200036942324242037E0220C3A95E9F752280C
:10013000052D3F91089519D018D017D016D015D09D
:100140000895BEE4ADE11197F1F70895B5E1A8E592
:100150001197F1F70895B0E0A3E81197F1F708952A
:10016000B0E0A1E41197F1F70895BFEFAFEF119759
:04017000F1F7089506
:00000001FF
