:020000020000FC
:1000000000C00F930FE00EBF0FEF0DBF00E00BBF5E
:100010000FEF07BB0FEF08BB0F9180E008C0EFBEEA
:10002000000000000000EFBE00000000000080950E
:1000300088BB69D001D0FBCFAF93BF930F933F92A2
:100040006F937F93A0E2B1E060E200E00D936A95C8
:10005000E1F7B1E060E070E0A0E0A60F1C91A0E045
:100060005096A70F2C91A0E09096A70FA60F3C9159
:10007000129F030E08F413940D924D91140E08F084
:1000800005C04C9101E0400F4D93D8F3A0E090964D
:10009000A70FA60FA3951C9273957031E9F67727E9
:1000A00063956031C9F67F916F913F900F91BF9139
:1000B000AF910895AF93BF930F936F935F9388941D
:1000C000A0E0B1E060E11C9150962C91509650FD5B
:1000D0000894121F20F055271C935F9702C051E02F
:1000E000FBCF6A9581F7A0E3B1E050FD089418F0CA
:1000F00000E00C9302C001E00C935F916F910F91AF
:10010000BF91AF910895EF93FF93AF93BF930F9378
:100110001F93EEE1F0E0A0E0B1E000E115911D9346
:100120000A95E1F7E6E2F0E000E115911D930A95EA
:10013000E1F71F910F91BF91AF91FF91EF9108955A
:00000001FF
