:020000020000FC
:1000000000C00FE00EBF0FEF0DBF00E00BBF00EC14
:1000100005BF0FEF0ABB00E00BBB0FEF07BB05E509
:1000200008BB00E005BB772771600C94170070FDDA
:100030002ED070FD7E7F12D05AD059D058D04CD0DF
:10004000F6CF4461766964204D6F6E6B496D7065C3
:100050007269616C20436F6C6C656765F0E0E2E487
:1000600020E20590102D309300C033953AD02A95A8
:1000700009F0F7CF0895F0E0ECE420E10590102DB1
:10008000109300C02ED02A9509F0F8CF089535D0EE
:1000900000E30093008036D00093008038D00093B6
:1000A00000801FD00FE3009300801BD008E0009376
:1000B000008017D001E00093008013D008E3009384
:1000C00000800FD00EE0009300800BD006E000937C
:1000D000008007D00027089501E00093008001D040
:1000E00008950091008007FDFCCF11D0089514D031
:1000F00013D012D011D010D00895BEE4ADE1119705
:10010000F1F70895B5E1A8E51197F1F70895B0E08A
:10011000A3E81197F1F70895BFEFAFEF1197F1F74B
:02012000089540
:00000001FF
