:020000020000FC
:1000000000C00FE00EBF0FEF0DBF00E00BBF00E818
:1000100008B90FEF0ABB00E00BBB0FEF07BB0FEFF8
:1000200008BB0FEF04BB0FEF05BB00E002B90FEFF9
:1000300003B900E001BB0FEF02BB0C9433001F9328
:100040001FEF1A95F1F71F9108951F931FEFF7DF28
:100050001A95E9F71F9108951F931AE0F6DF1A9594
:10006000E9F71F91089508E0202E06E0302E09E000
:100070001FE020EF3AEA05BB021905BB030D05BBE3
:100080003BBB0A95DCDF05BBDADF020D05BBD7DF22
:10009000021905BB41B048BA020D039505BB0C948B
:1000A0003B0005BB0A950C943B000C9433000C9468
:1000B000720020B32E3F69F02D3FA1F02B3FD1F00D
:1000C00012E0139515BB0C9465001A9515BB0C94A2
:1000D000590010E015BB139515BB21B028BA1A952D
:1000E0000C9459000AEA12E015BB0BBB139515BB23
:1000F0000C94590000E012E03FEF33B938BB15BB58
:0E0100000BBB139515BB0C9459000C943300E7
:00000001FF
