:020000020000FC
:1000000000C00F930FE00EBF0FEF0DBF00E00BBF5E
:1000100000EC05BF0FEF07BB0FEF08BB00E001BB13
:100020000FEF02BB0FE911E035D060D084D00AEAAF
:10003000552700C037D0023019F411D002D01DD09E
:10004000F9CF0AEAC0E0D2E0A0E0B1E00D9038D0EC
:10005000002609921A95D1F714E018830895112704
:1000600021D0043041F0C0E0D1E0099313951AD0BB
:10007000043009F0FACF099308950F935CD0C0E0E3
:10008000D2E00991043021F0009300C05BD0F9CF99
:100090000F910895109398000093990008E1009340
:1000A0009A0008952F933F9320919B0027FFFCCF48
:1000B00000919C00302F309538BB3F912F910895CF
:1000C0003F93202E31E0432E302E3694532C36941D
:1000D00023243694232436942324242037E0220C2E
:1000E0003A95E9F75228052D3F91089539D000E35C
:1000F000009300803AD0009300803CD000930080B1
:1001000021D00FE3009300801DD008E00093008011
:1001100019D001E00093008015D008E3009300801F
:1001200011D00EE0009300800DD006E00093008017
:1001300009D0002708950F9301E00093008002D0BA
:100140000F9108950F930091008007FDFCCF12D00E
:100150000F91089519D018D017D016D015D0089542
:10016000BEE4ADE11197F1F70895B5E1A8E5119767
:10017000F1F70895B0E0A3E81197F1F70895B0E022
:10018000A1E41197F1F70895BFEFAFEF1197F1F7E1
:020190000895D0
:00000001FF
