:020000020000FC
:1000000000C00FE00EBF0FEF0DBF00E00BBF00EC14
:1000100005BF0FEF0ABB00E00BBB0FEF07BB0FEFF5
:1000200008BB00E005BB772771600C94170070FDDA
:100030004DD070FD7E7F03D039D078D0F8CF8BD0F3
:10004000332444240F93002700BD0FE002B900EFD2
:1000500003B981D031B07FD000EF02B90FE003B90E
:100060007AD041B0340C3094A9F0532C30E040E009
:10007000552D517011F0329403C056943395F8CF3A
:10008000532D517019F0340F0F910895369464E098
:10009000460FF6CF30E10F910895313233413435B8
:1000A0003642373839432A3023442000F0E0EAE969
:1000B0003395313151F00590102D32D03A9509F039
:1000C000FACF109300C02CD00895089535D000E3E6
:1000D0000093008036D00093008038D000930080D9
:1000E0001FD00FE3009300801BD008E00093008036
:1000F00017D001E00093008013D008E30093008044
:100100000FD00EE0009300800BD006E0009300803B
:1001100007D00027089501E00093008001D00895E2
:100120000091008007FDFCCF11D0089519D018D0A0
:1001300017D016D015D00895BEE4ADE11197F1F7B0
:100140000895B5E1A8E51197F1F70895B0E0A3E8A7
:100150001197F1F70895B0E0A1E41197F1F7089530
:0A016000BFEFAFEF1197F1F708951C
:00000001FF
