:020000020000FC
:1000000000C00FE00EBF0FEF0DBF00E00BBF00E818
:1000100008B90FEF0ABB00E00BBB0FEF07BB0FEFF8
:1000200008BB0FEF04BB0FEF05BB00E002B90FEFF9
:1000300003B900E001BB0FEF02BB0C9433001F9328
:100040001FEF1A95F1F71F9108951F931FEFF7DF28
:100050001A95E9F71F9108951F931AE0F6DF1A9594
:10006000E9F71F9108950C944E0020B32E3F69F0DC
:100070002D3FA1F02B3FD1F012E0139515BB0C944E
:1000800041001A9515BB0C94350010E015BB139573
:1000900015BB21B028BA1A950C9435000AEA12E073
:1000A00015BB0BBB139515BB0C94350000E012E09B
:1000B0003FEF33B938BB15BB0BBB139515BB0C9485
:0600C00035000C94330032
:00000001FF
