:020000020000FC
:1000000000C00F930FE00EBF0FEF0DBF00E00BBF5E
:100010000FEF07BB0FEF08BB00E001BB0FEF02BB08
:100020000FE911E009D00AEA00C040D040B34F3FC9
:10003000E1F70AD025D0F9CF1093980000939900EA
:1000400008E100939A0008952F933F9320919B001D
:1000500025FFFACF00939C00302F309538BB3F919D
:100060002F9108952F933F9320919B0027FFFACF64
:1000700000919C00302F309538BB3F912F9108950F
:100080003F93202E31E0432E302E3694532C36945D
:1000900023243694232436942324242037E0220C6E
:1000A0003A95E9F75228052D3F91089519D018D0B7
:1000B00017D016D015D00895BEE4ADE11197F1F731
:1000C0000895B5E1A8E51197F1F70895B0E0A3E828
:1000D0001197F1F70895B0E0A1E41197F1F70895B1
:0A00E000BFEFAFEF1197F1F708959D
:00000001FF
