:020000020000FC
:1000000000C00FE00EBF0FEF0DBF00E00BBF00E818
:1000100008B90FEF0ABB0FEF0BBB0FEF07BB0FEFDA
:1000200008BB00E001BB0FEF02BB0C945A001F930A
:100030001FEF1A95F1F71F9108951F931FEFF7DF38
:100040001A95E9F71F9108951F931AE0F6DF1A95A4
:10005000E9F71F910895A0E0B1E02D903C900F9337
:100060001F9300E010E003952318E8F70A95230C8E
:10007000A2E0B1E02C921F910F910895A3E0B1E0AE
:100080000C9111E01395011759F0A0E0B1E00D9328
:100090001C93E1DFA2E0B1E02D91203031F091F727
:1000A000A4E0B1E021E02C930895A4E0B1E020E0C9
:1000B0002C9308954BEFA3E0B1E04C93DFDFA4E075
:0E00C000B1E02C900BBA009428BA0C945A00B0
:00000001FF
