:020000020000FC
:100000000FE00EBF0FEF0DBF00E00BBF00EC05BF10
:100010000FEF0ABB00E00BBB0FEF07BB0FEF08BBF6
:1000200000E005BB772771600C94160070FD36D098
:100030000BD00FD070FD7E7F11D0309538BB30953E
:100040001CD05CD050D0F2CF0F9303E806B90F91CB
:1000500008952F93222727B92F910895369A349B1C
:10006000FECF349A34B145B1089550E3150F0F9384
:10007000109300C03DD00F910895142FF6DF1EE2BB
:10008000F6DF0AE0309F112DF0DF009E112DEDDF2D
:10009000009E112DEADF16E5EADF089535D000E372
:1000A0000093008036D00093008038D00093008009
:1000B0001FD00FE3009300801BD008E00093008066
:1000C00017D001E00093008013D008E30093008074
:1000D0000FD00EE0009300800BD006E0009300806C
:1000E00007D00027089501E00093008001D0089513
:1000F0000091008007FDFCCF11D0089519D018D0D1
:1001000017D016D015D00895BEE4ADE11197F1F7E0
:100110000895B5E1A8E51197F1F70895B0E0A3E8D7
:100120001197F1F70895B0E0A1E41197F1F7089560
:0A013000BFEFAFEF1197F1F708954C
:00000001FF
